:100000000080001095050000C5050000C705000030
:10001000C9050000CB050000CD0500000000000070
:10002000000000000000000000000000CF050000FC
:10003000D105000000000000D3050000D505000038
:10004000D7050000D7050000D7050000D705000040
:10005000D7050000D7050000D7050000D705000030
:10006000D7050000D7050000D7050000D705000020
:10007000D7050000D7050000D7050000D705000010
:10008000D7050000D7050000D7050000D705000000
:10009000D7050000D7050000D7050000D7050000F0
:1000A000D7050000D7050000D7050000D7050000E0
:1000B000D7050000D7050000D7050000D7050000D0
:1000C000D7050000D7050000D705000010B5054C86
:1000D000237833B9044B13B10448AFF300800123F4
:1000E000237010BD78010010000000009C6C00001F
:1000F000084B10B51BB108480849AFF30080084809
:10010000036803B910BD074B002BFBD0BDE81040BE
:10011000184700BF000000009C6C00007C0100102C
:100120007801001000000000154B002B08BF134B96
:100130009D46A3F5803A00218B460F461348144A8A
:10014000121A01F008FB0F4B002B00D098470E4B02
:10015000002B00D098470020002104000D000D481E
:10016000002802D00C48AFF3008001F0ADFA200067
:10017000290000F0D9F901F0F9F800BF00000800EB
:100180000080001000000000000000007801001056
:100190009C0300100000000000000000094BFF223B
:1001A000BF2110B51C3343F81C2C43F80C1C1A60FB
:1001B0001C46054A402313600448236000F082FF78
:1001C000F7E700BF00C0092018C00920CDCC4C3E85
:1001D0000C4A30B4936894681A46B4F1805F0CD22C
:1001E000094A03F1C40553F8044BAB4242F8044FEB
:1001F000F9D1044B4FF080529A60103042F8201031
:1002000030BC704700ED00E0FCFFFF0F2B4A2023BD
:1002100070B4C2F8A031D2F8A031980645D4274B6B
:10022000022100250124AA2055220B26C3F804111F
:10023000C3F8A8511946C3F8AC51C3F80C41C3F830
:100240008460C3F88C00C3F88C20C3F88040C3F8E6
:100250008C00C3F88C20D1F88830184A5B01FAD59D
:100260000321AA205523C2F88010C2F88C00114641
:10027000C2F88C30D1F88830104A13F0407FF9D0A2
:100280000F4900230520C2F80801C2F8C410C2F8C3
:10029000C831136870BC23F4704323F03A0343F46D
:1002A000405343F03A0313607047D2F8A031590627
:1002B000B5D4D2F8A0315906F7D5B0E700C00F4049
:1002C000DE87280400B599B072B63B49684600F055
:1002D0001FFE06A8394900F01BFE0CA8384900F0A3
:1002E00017FE12A8374900F013FE32E00699039B6F
:1002F000019A01311A6059D00C990A9B079A013171
:100300001A604DD01299109B0D9A01311A6041D09C
:10031000159B139A96201A6000F0E0FE009B0133B3
:1003200032D00699049B019A01311A6026D00C99AB
:10033000099B079A01311A601AD012990F9B0D9AE6
:1003400001311A600ED0169B139A96201A6000F0A5
:10035000C5FE009B0133C9D11B481C49242200F073
:10036000AFFDC3E718481949242200F0A9FDEAE7C8
:1003700015481649242200F0A3FDDEE71248134970
:10038000242200F09DFDD2E70F481049242200F0FE
:1003900097FDC6E70C480D49242200F091FDB7E710
:1003A00009480A49242200F08BFDABE706480749BB
:1003B000242200F085FD9FE732C0092034C00920C7
:1003C00035C0092037C00920A0640000B8640000CF
:1003D00002480349034A00F095BC00BF9003001097
:1003E00002C0092003C00920022808B50BDD084B14
:1003F000C21E53F82200002143F8221028B10368DE
:100400005B68984708BD002008BD4FF0FF3008BD6D
:1004100094010010022870B50C4616460FDC0E4BF6
:100420001B680BB9FFF7D4FFA51936B114F8011BEF
:100430000A4800F0B7FBAC42F8D1304670BD084B1B
:10044000033853F8200018B103681B68984770BD43
:100450004FF0FF3070BD00BF9402001090030010F9
:1004600094010010022810B50C4609DC0D4B1B68E6
:100470008BB10D4800F040FB01232070184610BDE1
:100480000A4B033853F8200040B103689B68984733
:100490000346184610BDFFF79BFFEAE74FF0FF3316
:1004A000ECE700BF940200109003001094010010CC
:1004B000022808B508DD074B033853F8200028B19F
:1004C0000368DB68984708BD012008BD4FF0FF3086
:1004D00008BD00BF94010010022808B508DD074BD5
:1004E000033853F8200028B103681B69984708BDFA
:1004F000002008BD4FF0FF3008BD00BF9401001080
:10050000022808B504D84FF400534B60002008BD02
:1005100000F026FF092303604FF0FF3008BD00BF45
:10052000704700BF704700BF08B5FFF7FBFFFFF73C
:10053000F7FFBDE80840FFF731BE00BF074A136868
:100540001844EFF30881884202D2106018467047C1
:10055000034B0C221A604FF0FF307047CC000010A4
:10056000980300100A4C08B523680546986800F007
:10057000BFFF2368D86800F0BBFF00F081FD20B901
:1005800005B9FEE7FFF79EFEFBE700F07BFDF7E70E
:10059000300100100649074A074B9A42BEBF51F886
:1005A000040B42F8040BF8E704488047044800476E
:1005B000A86C0000C8000010780100100D020000B7
:1005C00029010000FEE7FEE7FEE7FEE7FEE7FEE7A3
:1005D000FEE7FEE7FEE7FEE708B5154A9368C3F3BA
:1005E0004203012B1ED0022B19D1124B596F01313E
:1005F0000AD0D3F88010986F086093F8A61019B944
:10060000516821F001015160186F0A4B48B193F80D
:10061000A6302BB10021084A1368984708BD08BDD1
:1006200008BD08BD034A106F0028F9D01946F2E74B
:10063000008009409C0200109802001070B5036809
:10064000294CA34249D041DD284CA3422AD004F5CD
:100650008044A34244D1264C08263ABB01290BD042
:100660004568244AC5EBC50502EBC50494F835502E
:1006700094F83620EA4214D1012202FA01F5D1F1B0
:10068000010138BF002102FA01F15C6824EA050487
:100690005C6003685B68194203D1B240164BC3F833
:1006A000802070BD154C0726002AD7D0012505FAF9
:1006B00001F176B2304605FA06F65A680A435A60E6
:1006C0002146FFF785FD0C4B1E6070BDA4F58044EC
:1006D000A34205D10A4C0526BFE70A4C0626BCE713
:1006E00000242646B9E700BF000001400080094011
:1006F0006D0700009C02001000E100E0D905000039
:1007000009070000D907000008B5154A9368C3F32C
:100710004203012B1DD0022B18D1124B5968013115
:1007200009D019699868086093F8361019B95168AA
:1007300021F00101516018680A4B48B193F8363036
:100740002BB10021084A1368984708BD08BD08BDB1
:1007500008BD044A10680028F9D01946F2E700BF26
:1007600000C000409C0200109802001008B5174A13
:100770009368C3F34203012B21D0022B1CD1144BED
:10078000D3F8AC1001310BD0D3F8B810D3F8B000C7
:10079000086093F8DE1019B9516821F00101516029
:1007A000D3F8A8000A4B48B193F8DE302BB10021F2
:1007B000084A1368984708BD08BD08BD08BD044A2B
:1007C000D2F8A8000028F8D01946F1E700C0094087
:1007D0009C0200109802001008B5154A9368C3F3F4
:1007E0004203012B1DD0022B18D1124BD96B0131C2
:1007F00009D0996C186C086093F86E1019B951689B
:1008000021F001015160986B0A4B48B193F86E30AA
:100810002BB10021084A1368984708BD08BD08BDE0
:1008200008BD044A906B0028F9D01946F2E700BFD2
:10083000000001409C020010980200102DE9F04FCA
:100840000368884A8DB0934209908B4600F3F0808C
:10085000854A934200F0F78040F3D780834A934261
:1008600000F09F8002F5804293420CD1804AD2F87A
:10087000AC1121F44021C2F8AC11D2F8AC1141F412
:100880008021C2F8AC117B494FEA0B12096808912C
:10089000089CB1FBF2F102FB114289B20491002ADB
:1008A00000F0B1806100A2000123029400240B91AA
:1008B0000A9201930F4603920693CDF81CB05E4650
:1008C0000594DDF81CA001994FF00008D146CDB287
:1008D000DA46C346002F79DB0399DDF804E0B1FB6B
:1008E000F9F464090134C4F34F04DE44002C66D1EA
:1008F0000124B8F1000F67D104FB0EF0029AC0008A
:10090000B2FBF0F00130CAEB500000F025FDB04220
:1009100006DA504564D00646CDF814800494069556
:100920000BF1010B5FFA8BF84545D144D2D8019CFD
:10093000D3460F2C4FF000035DD0029A0899019C1A
:100940000A440B99013402920194039A0F440A9CC1
:1009500007992244594403920791002BB1D0069B7A
:10096000059A099C42EA03102368C0B2197B049CD3
:1009700041F08001C4F30722099C1973236804998C
:100980001A7123685FFA81FB83F800B0236883F84B
:10099000280023681A7B02F07F021A730DB0BDE8AD
:1009A000F08F334AD2F8AC1121F44031C2F8AC11C7
:1009B000D2F8AC1141F48031C2F8AC1163E7B8F160
:1009C000000F99D0012C97D8022495E7B7FBF9F4D2
:1009D0002409DDF804E00134C4F34F04DE4485E764
:1009E0000494019CD3460F2C0695CDF814805646EE
:1009F0004FF00103A1D10599069A099C41EA021022
:100A0000C0B22368B2E71020B0E7A2F5804293425B
:100A10007FF439AF164AD2F8A81121F0C001C2F80C
:100A2000A811D2F8A81141F04001C2F8A8112AE794
:100A30009B221148114900F043FA099C0A4A236895
:100A400093427FF409AF0A4AD2F8A81121F4407109
:100A5000C2F8A811D2F8A81141F48071C2F8A81107
:100A600011E700BF00C009400000014000800940BC
:100A700000C00F40C8000010C0650000DC65000029
:100A8000F8B55D1E012D07460C46164604D91548DB
:100A90001549FB2200F014FA053C032C1CD8042E47
:100AA00014D8013EF6B2032E0DD8104B082253F88D
:100AB00026301B01DBB244EA8504144323433A6821
:100AC000DBB21373F8BD00231A46F4E70848064961
:100AD000FE2200F0F5F9E4E706480349FC2200F0A5
:100AE000EFF9DCE744660000DC65000044650000C7
:100AF000906600006C66000000B50268137DDB079D
:100B0000FCD543680949C3EBC30301EBC303596830
:100B100010780131C0B207D0596904335B680B60AB
:100B2000536843F0010353605DF804FB9C0200101E
:100B300038B54368184AC3EBC303DB00D118044639
:100B4000C869013011D018331A445368151D013398
:100B500016D06A696B6812681A4204D12368187D3E
:100B6000C0F3801038BD002038BD23681B7D9B0674
:100B70000CD491F834000F288CBF0020012038BD20
:100B8000064807492C2200F09BF9E2E7002381F890
:100B90003430012038BD00BF9C020010A06400006A
:100BA0001467000038B504460D462046FFF7C0FF25
:100BB0000028FAD02368EDB21D706268054BC2EBC5
:100BC000C20203EBC20393F83420013283F83420CD
:100BD00038BD00BF9C0200102DE9F04F0446454D82
:100BE000006883B0A8420E469046994643D0656897
:100BF000002301932A46DFF808A1EF00C2EBC202EE
:100C0000781B4FF0000E0AEBC0000AEBC20C4FF04D
:100C1000FF33C36143607146724620468CF835E06D
:100C2000FFF70CFD16B903B0BDE8F08F324940461E
:100C300000F0FEF931498346484600F0F9F9B21E4A
:100C4000012A38D9012EEED1B8F1FF3FEBD0294966
:100C5000226807208B45107215D1019B9BB11B7C2C
:100C6000019A254943F040034046137403B0BDE8A0
:100C7000F04F00F0ABB9037C656803F03F030374E9
:100C800062680190B7E77D1B0AEBC500414604305E
:100C9000002200F05FF962680125C2EBC2020AEB94
:100CA000C20320462A46002183F8355003B0BDE830
:100CB000F04FFFF7C3BCB9F1FF3F09D00D4A904296
:100CC0000CD0781B0AEBC00049461C3000F00EF92E
:100CD000032EA8D1B8F1FF3FB9D1A4E7019B002BA7
:100CE000EFD01A7C484642F080021A74034900F0A3
:100CF0006DF9EDE70000014020650000FC67000091
:100D00009C0200102DE9F0470F4605460846614950
:100D1000164600F09BF960490446304600F096F90B
:100D20000146204600F072F9411C044600F0AB80F9
:100D30005A4B2860984200F0838053D9584B984210
:100D400076D003F58043984206D1564BD3F8C420A1
:100D500042F00072C3F8C4204FF0010984F80890F3
:100D60002B684FF00008C3F8048028464FF4165152
:100D7000FFF764FD42464B4628460821FFF780FEF8
:100D80003846444900F022F93046434900F01EF944
:100D90007A1C03D03846414600F024FA731C03D075
:100DA0003046002100F01EFA3C4B9C4250D025D921
:100DB0003B4B9C4264D003F580439C424BD10323C0
:100DC0006B603949C3EBC3034FF0FF34284601EB96
:100DD000C305224623466C60EC610021BDE8F04764
:100DE000FFF7FABEA3F580439842B5D12D4BD3F857
:100DF000C42042F00802C3F8C420ADE7A3F5804345
:100E00009C4228D1284E4FF0FF34002169602246D1
:100E1000234628467460F461FFF7DEFE234B01246D
:100E200029461C6022480822BDE8F04700F088BC33
:100E30001C4BD3F8C42042F08072C3F8C4208BE767
:100E4000184BD3F8C42042F01002C3F8C42083E743
:100E500001236B60B5E76B681349C3EBC3034FF025
:100E6000FF3601EBC30732463346284600217E6039
:100E7000FE61FFF7B1FE0F4B9C42CFD0BDE8F0877B
:100E800002236B609DE70C480C495C2200F018F8C7
:100E90002C6061E79067000054650000000001408D
:100EA0000080094000C00F409C0200109402001016
:100EB0009003001000C0004080670000DC65000067
:100EC00010B5084B0446186882B00B46C068064946
:100ED0000092224600F0C8FB02B0BDE81040FFF7C8
:100EE000F1B900BF300100102068000038B50D4690
:100EF000044600F011F9013509D02046002100F028
:100F000027F920460321BDE8384000F01DB938BD5F
:100F100038B50D46044600F0FFF801350FD02368C0
:100F200001330DD02369626820461A60012100F068
:100F30000FF920460221BDE8384000F005B938BD60
:100F4000024803492422FFF7BBFFEBE7A06400003F
:100F5000B864000070B50D461646044600F0DCF893
:100F6000013514D02368013312D066B92369626851
:100F70001A602046012100F0EBF820460221BDE86E
:100F8000704000F0E1B8E36862681A60F1E770BD94
:100F9000034804492422FFF793FF002EE6D0F2E72E
:100FA000A0640000B86400000FB400B5064A83B026
:100FB00004AB126853F8041BD0681A46019300F082
:100FC0009DFD012000F0D2F930010010431C10B546
:100FD000044618D00B68581C04D10FE051F80C3FA0
:100FE0005A1C0BD09C42F9D12046896800F0D2F8F7
:100FF00020460221BDE8104000F0F4B80248BDE8E8
:101000001040FFF7D1BF10BD54680000884208B5FA
:101010000AD0431C07D0013106D00448FFF7C4FFB3
:101020004FF0FF3008BD084608BD00BF68680000EB
:101030000B685A1C04D107E051F80C3F5A1C03D02E
:101040008342F9D1486870471846704708B5431C79
:101050000CD00B685A1C04D109E051F80C3F5A1C03
:1010600005D09842F9D14868411C00D008BD03481A
:10107000FFF79AFF4FF0FF30F8E700BF7C680000F1
:1010800000F00CB830B585B018246D4620462946CE
:10109000ABBE0446204605B030BD00BF024B186809
:1010A00000F00100704700BFF0ED00E038B50546E4
:1010B00000F008F9044600F005F9001BA842FAD335
:1010C00038BD00BF08B5044905F068F805F0B6F969
:1010D000BDE80840FFF7EABF002474494FF47A7373
:1010E00003FB00F0FFF7E2BF431C10B5044608D035
:1010F0002046002100F04EF804F01F040120A0401B
:1011000010BD034803491522FFF7DAFEF0E700BFE0
:101110009C680000B068000038B504464B1C0D46C2
:1011200021600FD00846FFF7DFFF25F01F0505F10E
:10113000180105F11C0205F114036060A560E1606F
:101140002261636138BD00BF006800F04BB800BF8A
:1011500038B50368044601330D4610D045B1012D62
:1011600005D1A368626819680A431A6038BD38BDA2
:10117000A36861681A6822EA01021A6038BD034850
:1011800003492C22FFF79CFEE8E700BFA0640000A3
:10119000B068000038B5431C04460D4617D004F172
:1011A0006040A0F51C2000F00F035B0003229A4072
:1011B0009D4003099B0003F1804303F53033196818
:1011C00021EA02021A601A6815431D6038BD0348FF
:1011D00003491522FFF774FEE1E700BF9C68000099
:1011E0001869000038B5431C04460D462CD004F1A4
:1011F0006040A0F51C2000F01F04C5F3800202FA35
:1012000004F443099B0003F1804303F53033996EE6
:1012100021EA04019966996E0C439C669AB900F024
:101220000F035B0003229A4005FA03F300098000D4
:1012300000F1804000F53030016C21EA02020264C6
:10124000026C1343036438BD024803492022FFF7B0
:1012500037FECCE79C68000018690000134A38B5D7
:1012600013680BBB12490124D1F8C4501460114A11
:10127000114845F40005C1F8C4501367036801F133
:10128000437101F5F45103319B08A1FB03039B0C4F
:10129000013B022151600420D36008495460FEF7ED
:1012A00097FF074B10221A6038BD00BF7C03001067
:1012B00000C00F4000400940C8000010111300009A
:1012C00000E100E008B5044B1B680BB9FFF7C6FF4F
:1012D000024B986808BD00BF7C0300100040094025
:1012E000034B98615A6942F001025A61704700BF8E
:1012F00000400940024B5A6922F001025A617047CE
:1013000000400940014B01221A607047004009402B
:1013100070B5FFF7F7FF0E4C0E4E236873B11D68D2
:10132000FFF7D0FF281A00280CDC216832688B6890
:101330002360002AF2D048689047EEE7BDE870408D
:10134000FFF7D8BF2368BDE870401868FFF7C8BF33
:1013500080030010840300100028B8BF404270478B
:10136000014B1868704700BF3001001008B5074BEB
:10137000044613B10021AFF30080054B1868836A5F
:1013800003B198472046FFF7EDF800BF00000000CA
:10139000E06900008A892DE9F041054610070C46F6
:1013A00057D44B68002B02DC0B6C002B18DDE66A6F
:1013B000B6B102F48052002392B22F682B600AB1BA
:1013C000626D10E0216A28460123B047411C0246A5
:1013D00009D12B683BB11D2B01D0162B46D12F60B4
:1013E0000020BDE8F081A3895B0705D56368D21AA8
:1013F000636B0BB1236CD21AE66A00232846216A7C
:10140000B047461CA38905D12A681AB11D2A01D00C
:10141000162A19D1002262602269D904226004D5FB
:10142000421C01D12B6803B96065616B2F600029F4
:10143000D6D004F14403994202D0284600F094F932
:1014400000206063BDE8F08143F04003A381BDE864
:10145000F0810F69002FC3D093070E680CBF4B6952
:101460000023C7EB06080F608B6012E0A3894FF0E2
:10147000FF3043F04003A381BDE8F0812846216A94
:101480003A464346A66AB0470028EFDD0744C0EB62
:101490000808B8F1000FF1DCA2E7000038B50B69CD
:1014A00005460C46DBB118B183690BB900F072F840
:1014B0000C4B9C4201D16C6808E00B4B9C4201D163
:1014C000AC6803E0094B9C4208BFEC68B4F90C30EF
:1014D0002BB128462146BDE83840FFF75BBF00200E
:1014E00038BD00BF7C6900009C690000BC69000039
:1014F000014620B9044B0549186800F0C7B8044BF1
:101500001868FFF7CBBF00BFE06900009D14000022
:1015100030010010014900F0B9B800BF9D1400006F
:1015200010B50446002303604360836081814366F5
:10153000C28103614361836119465C30082200F077
:101540000AF9054B24626362044BA362044BE36215
:10155000044B236310BD00BF7D2800009F280000BE
:10156000D7280000FB28000070B568234D1E5D439E
:101570000E4605F1740100F03BF9044640B100212C
:1015800080E842000C30A06005F1680200F0E3F84A
:10159000204670BD836910B5044633BB8364C364C1
:1015A0000365124B124A1B688262984204BF0123F2
:1015B000836100F01FF86060204600F01BF8A06017
:1015C000204600F017F80421E06000226068FFF771
:1015D000A7FFA06809210122FFF7A2FFE0681221FE
:1015E0000222FFF79DFF0123A36110BDE069000007
:1015F00015150000F8B51B4B07461E68B36913B9F3
:101600003046FFF7C7FF4836B4687368013B04D41F
:10161000B4F90C5075B16834F8E733682BB9384623
:101620000421FFF7A1FF306008B13668ECE70C2316
:101630003B60F8BD4FF6FF73E3810123A38165662C
:101640002560A560656025616561A56104F15C00A8
:101650002946082200F07FF86563A563A564E56468
:101660002046F8BDE06900000EB403B5014603ABA7
:10167000054853F8042B0068019300F037F902B0D5
:101680005DF804EB03B07047300100102DE9F8431A
:101690008046894600F14804002694B1A568676831
:1016A000013F0CD4AB89012B07D9B5F90E300133BA
:1016B00003D040462946C84706436835F0E724680A
:1016C000EBE73046BDE8F8830E4B70B51E460E4C76
:1016D0000025E41AA410A54204D056F825309847F6
:1016E0000135F8E704F0D0FE084B094C1E46E41A19
:1016F000A4100025A54204D056F82530984701359E
:10170000F8E770BD7001001070010010700100104A
:1017100074010010024B0146186800F069B800BF60
:101720003001001010B5C9B202449042034605D002
:101730001C7801308C42F8D1184610BD002010BD35
:1017400010B5431E0A44914204D011F8014B03F82E
:10175000014FF8E710BD03460244934202D003F85C
:10176000011BFAE77047000030B500293CD051F862
:10177000042C0B1F1D49002AB8BF9B180A680C4691
:1017800012B95A600B6030BD93420DD219685818D7
:10179000904201BF5A5852181A60426823605A603A
:1017A00030BD994203D80A4651680029F9D114681E
:1017B00015199D420AD11B682344D0188842136032
:1017C00012D10868034413604B680CE002D90C2363
:1017D000036030BD1C681819884201BF0868496859
:1017E000001918605960536030BD00BF8C030010B1
:1017F00070B5CC1C24F0030408340C2C38BF0C2426
:10180000002C064603DA0C233360002070BD8C42A6
:10181000F9D3204A136810461946A1B10A68121B71
:101820000ED40B2A03D90A608B188C501FE08B4210
:101830000BBF5A684A6802605A6018BF0B4616E030
:101840000B464968E9E7144D2B681BB9304600F098
:10185000DDFF28603046214600F0D8FF421C0346D9
:10186000D1D0C51C25F0030585420AD11C6003F1C7
:101870000B001A1D20F00700821A0AD0514299501D
:1018800070BD3046E91A00F0C1FF0130BBD02B46D5
:10189000ECE770BD8C03001088030010936810B54E
:1018A000013B002B936009DA9469A34202DBCBB2BF
:1018B0000A2B03D1BDE8104001F020BF1368581C6B
:1018C00010601970C8B210BDF8B506460F46144630
:1018D000D518AC4208D0304614F8011B3A46FFF741
:1018E000DDFF431CF5D100E00020F8BD2DE9F043F9
:1018F0009DB00D4690460393064618B183690BB917
:10190000FFF748FE754B9D4201D1756808E0744BA6
:101910009D4201D1B56803E0724B9D4208BFF56856
:10192000AB891C070AD52B6943B1002309932023F7
:101930008DF8293030238DF82A3041E03046294691
:1019400001F042FF0028F0D04FF0FF30C2E0039AD0
:101950000134111D12680391002ABBBF524243F0AB
:10196000020307920792B8BF049323782E2B7BD0F3
:10197000DFF88081217840460322FFF7D3FE38B19B
:10198000049AC8EB000040238340134304930134BE
:1019900021785548062204F101088DF82810FFF738
:1019A000C1FE002800F08580504B002B78D1039BAE
:1019B000073323F0070308330393099B3B44099340
:1019C00043461C4613F8012B1AB9B4EB08090ED094
:1019D00002E0252AF5D1F8E73046294642464B4633
:1019E000FFF772FF013070D0099B4B4409932378B5
:1019F000002B6AD000234FF0FF3204930793059227
:101A000006938DF853301A9304F101084446DFF829
:101A1000E890217848460522FFF784FE08F1010886
:101A2000049B30B1C9EB00000122824013430493B0
:101A3000ECE7D80644BF20228DF85320190744BF95
:101A40002B228DF8532022782A2A80D0234607990A
:101A50001C4622780133303A092A03D80A2000FBB9
:101A60000121F5E7079180E763782A2B0AD1039BD0
:101A700002341A1D1B680392002BB8BF4FF0FF33CE
:101A8000059375E7611C00220C4623780131303B39
:101A9000092B03D80A2000FB0232F5E7059267E71D
:101AA00003AB0093304604A92A46114B00F0C4F85A
:101AB00007E003AB0093304604A92A460C4B00F024
:101AC00077FB421C07467FF478AFAB895B063FF596
:101AD0003BAF09981DB0BDE8F08300BF7C690000F2
:101AE0009C690000BC690000EE690000391C000020
:101AF000C9180000EA690000E469000030B5054635
:101B00000C461346034A294610682246BDE8304079
:101B1000FFF7ECBE300100102DE9F0471E4688B0FB
:101B2000149F002BB8BF06F10043129927F020073D
:101B3000B6BF1E4600232D23462F1446109DDDF808
:101B40004CA00B7003D0452F03D1013501E00323D6
:101B500000E002238DE8280406AB039307AB04934F
:101B60002246334601F038FF472F804602D1119BB1
:101B7000DB0726D5462F08EB050911D198F8003070
:101B8000302B0AD1204631460022002304F03CFAD3
:101B900018B9C5F10105CAF80050DAF800309944C7
:101BA000204631460022002304F02EFA08B1CDF879
:101BB0001C90079B4B4504D25A1C079230221A7086
:101BC000F7E74046079B159AC8EB0303136008B07C
:101BD000BDE8F087034673B50029B8BF494203F852
:101BE000022BB4BF2D222B22092942701ADD0DF1E0
:101BF000070426460A2291FBF2F502FB1511092D76
:101C000001F1300104F8011D2946F3DC3031651E75
:101C100004F8011CB5421A460AD215F8012B03F844
:101C2000012BF7E71A463024214402F8024B597081
:101C3000101A02B070BD00002DE9F04F91B08B4634
:101C400015461E461A9F044602F08EFFD0F800A0EB
:101C5000504600F056FE00230E933B680990073370
:101C600023F0070303F108029BF818803A60D3E9D8
:101C70000023CBE91223DBE9120100F09FFD0128CC
:101C8000DBE9120119D10022002304F0C7F910B1D9
:101C90002D238BF84330A04BA04FB8F1470F88BFDE
:101CA0001F460323CBF81030DBF8003023F0040389
:101CB000CBF800304FF00009A1E000F07FFDDBF829
:101CC000003048B9964A974FB8F1470F88BF17467A
:101CD0000322CBF81020E9E7DBF80420DBE912014E
:101CE000571CCDE90A0101D1062209E0B8F1670FBE
:101CF00002D0B8F1470F05D1002A40F0C781012278
:101D0000CBF80420DBF8042043F480638DE80C005A
:101D1000CBF800300DF1330302930DAB03930EAB00
:101D2000059300230693CDF81080DDE90A232046B1
:101D3000FFF7F2FE08F0DF03472B07460AD10D9BA1
:101D4000D81C03DBDBF80420934237DDA8F102083E
:101D50005FFA88F8B8F1650F0D9915D80139424638
:101D60000BF150000D91FFF735FF0E9A8146831855
:101D7000012ACBF8103003DCDBF80020D10738D57E
:101D80000133CBF8103034E0B8F1660F18D10029D8
:101D9000DBF8043009DDCBF810101BB9DBF80020AC
:101DA000D20721D501330B441CE01BB9DBF800201E
:101DB000D00701D5023315E0012313E04FF0670887
:101DC0000D9B0E9A934207DBDBF80020CBF8103016
:101DD000D10709D5013305E0002BD4BFC3F10203BD
:101DE00001231344CBF810300D9B4FF00009CBF8C2
:101DF00058309DF8333013B12D238BF843300096C3
:101E0000204659460FAA2B4600F05CF9013002D15A
:101E10004FF0FF3052E1DBF800305A0505D4204680
:101E200029463A46DBF8103008E1B8F1650F40F278
:101E3000D080DBE912010022002304F0E5F850B362
:101E400020462946384A0123B0470130E0D00E9B96
:101E50000D9A9A4209DBDBF80030D80705D4DBF88D
:101E600000309F0700F1108107E1204629465246C5
:101E7000099BB0470130CBD000270E9B013B9F420E
:101E8000EDDA204629460BF11A020123B047013052
:101E9000BED00137F1E70D9B002B29DC20462946F7
:101EA000214A0123B0470130B2D00D9B2BB90E9BC4
:101EB0001BB9DBF80030D907D1D520462946524658
:101EC000099BB0470130A3D04FF000080D9B20467E
:101ED0005B429845294608DA0BF11A020123B04704
:101EE000013095D008F10108F0E73A460E9BA5E0D5
:101EF000DBF858200E9B9A42A8BF1A46002A91464A
:101F000002DC4FF000081CE0204629463A464B46CA
:101F1000B0470130F5D17BE7F9690000F5690000B1
:101F2000016A0000FD690000056A0000204629469C
:101F30000BF11A020123B04701303FF469AF08F1F9
:101F40000108DBF85830B9F1000FB4BF1A46C9EBED
:101F500003029045EADB07EB03080D9A0E9B9A42B9
:101F600010DBDBF80030DA070CD40E9A1744C8EB0C
:101F700007030D9FD21B9342A8BF1346002B1F4699
:101F800008DC0EE0204629465246099BB047013046
:101F9000EBD13DE7204629464246B04701303FF4A9
:101FA00037AF4FF000080AE0204629460BF11A022D
:101FB0000123B04701303FF42BAF08F101080D9A1F
:101FC0000E9B002FA3EB0203A8BFDB1B9845EBDBA6
:101FD00045E70E9A012A01DCDB0736D52046294663
:101FE0003A460123B04701303FF412AF204629465C
:101FF0005246099BB04701303FF40AAFDBE91201BA
:102000000022002304F000F8E8B90E9B2046294680
:102010007A1C013B1DE0204629460BF11A020123E0
:10202000B04701303FF4F4AE01370E9B013B9F42B5
:10203000F1DB204629464B460BF15002B0470130F8
:102040007FF40DAFE4E60027EFE7204629463A4645
:102050000123B0470130ECD1DAE6204629460BF1E6
:1020600019020123B04701303FF4D2AE0137DBF84B
:102070000C300F9A9B1A9F42EFDBDBF80C000F9B92
:102080009842B8BF184619E00027F0E743F4806390
:102090008DE80C00CBF800300DF1330302930DAB4B
:1020A00003930EAB059300230693CDF810802046D2
:1020B000DDE90A23FFF730FD074640E611B0BDE831
:1020C000F08F00BF2DE9F84391461F468A680B69DF
:1020D00006469342B8BF1346C9F8003091F8432032
:1020E0000C46DDF8208012B10133C9F800302368B6
:1020F000990642BFD9F800300233C9F8003025688C
:1021000015F006051CD094F843302268003318BF40
:10211000012392061FD5E118302081F843005A1C94
:1021200094F845102244023382F8431013E03046FD
:10213000394604F119020123C047013007D00135A7
:10214000E368D9F800209B1A9D42F0DBDBE74FF0F3
:10215000FF30BDE8F8833046394604F14302C047FA
:102160000130F4D02268D9F80050E36802F006028A
:10217000042A08BF5D1B2269A3680CBF25EAE57528
:1021800000259342C4BF9B1AED184FF00009A945E2
:102190000ADA3046394604F11A020123C0470130F9
:1021A000D5D009F10109F2E70020BDE8F88300006D
:1021B0002DE9FF410C461746227E98466E2A0646B8
:1021C0000A9B01F1430100F0B08012D8632A23D0AA
:1021D0000AD8002A00F0BD80582A40F0CC8084F84C
:1021E0004520DFF804E257E0642A1ED0692A1CD09B
:1021F000C1E0732A00F0B18009D86F2A2ED0702A6E
:1022000040F0B980226842F0200222603FE0752A47
:1022100024D0782A3BD0AEE01A6804F14205111DA3
:102220001960136884F84230A9E020681A6810F039
:10223000800F02D0101D186008E010F0400F02F16E
:102240000400186002D0B2F9003000E01368002BDF
:102250003EDA2D225B4284F8432039E020681A6878
:1022600010F0800F02D0101D186007E010F0400F32
:1022700002F10400186001D0138800E01368227E88
:10228000DFF864E16F2A0CBF08220A221CE07822E2
:10229000DFF858E184F845202268186812F0800FB2
:1022A00000F104051D6003D1550601D5038800E047
:1022B0000368D00744BF42F0200222601BB92268A5
:1022C00022F0200222601022002084F8430002E065
:1022D000DFF814E10A226568002DA8BF2068A56018
:1022E000A4BF20F00400206003B965B10D46B3FB24
:1022F000F2F002FB10331EF8033005F8013D0346EF
:102300000028F4D100E00D46082A0BD12368DA0733
:1023100008D5236962689A42DEBF302305F8013C84
:1023200005F1FF35491B21612EE025681A6815F07B
:10233000800F606903D0151D1D60136808E015F05B
:10234000400F02F104051D60136801D0188000E001
:102350001860002323610D4616E01A68111D1960EC
:102360001568002128466268FFF7DCF908B1401BB8
:102370006060636804E004F1420584F842200123B0
:102380002361002384F84330CDF800803046214695
:1023900003AA3B46FFF796FE013002D14FF0FF3013
:1023A0001FE0304639462A462369C0470130F5D040
:1023B00023689B0705D4E068039B9842B8BF184682
:1023C0000FE00025E368039A9B1A9D42F3DA30463A
:1023D000394604F119020123C0470130DED001352E
:1023E000F0E704B0BDE8F081076A0000186A000059
:1023F0002DE9F04F99468B6815465A1EB2F5AE7F0F
:1024000082BF6FF4AE7203EB020C40F25D130F4615
:1024100088BF8B600B684FF0000B43F4F06347F804
:102420001C3B06460C46B8465A46DA4687B098BF6B
:102430004FF0000CCDF80CB0CDF808B0CDF804B0DA
:10244000A168002900F0EC802B681B78492B70D024
:1024500016D8392B0DD8312B40D22D2B46D002D88F
:102460002B2B43D0DCE02E2B00F09280302B23D09E
:10247000D6E0452B00F09580462B77D0412B0CE021
:10248000652B00F08E800AD8542B75D002D84E2BC5
:1024900034D0C5E0592B75D0612B46D0C0E06E2BEF
:1024A0002CD004D8662B61D0692B42D0B8E0742BB5
:1024B00062D0792B66D0B3E0206810F4807F0DD015
:1024C00020F0800020600AF1010ABCF1000F00F04A
:1024D0008A8001310CF1FF3CA16084E012EB0B0F0C
:1024E00040F09E80216821F4C07105E02168080653
:1024F00040F1968021F08001216070E06AB9BAF164
:10250000000F0CD1216801F4E060B0F5E06F06D156
:1025100021F4F0612160012261E0022A5ED0BBF16A
:10252000010F1ED0BBF1040F1AE0012A78D102225C
:1025300055E0BBF1000F0ED1BAF1000F73D1216845
:1025400001F4E060B0F5E06F71D121F4F061216039
:102550004FF0010B43E0BBF1030F02D0BBF1050FBD
:102560005ED10BF1010B5FFA8BFB38E0BBF1020F80
:1025700056D14FF0030B32E0BBF1060F50D14FF0B4
:10258000070B2CE0BBF1070F4AD14FF0080B26E0F8
:102590002168880544D521F420712160CDF804A07C
:1025A0001DE0216801F4A060B0F5806F04D04805FB
:1025B00036D5BAF1000F3AD0880558BF019821F4FA
:1025C000F06158BFC0EB0A0041F4C0715CBF0290DB
:1025D000CDF80C8021604FF0000A00E0032288F85B
:1025E000003008F10108A368013BA36023690133AF
:1025F00023616B68013B002B6B6003DD2B680133AB
:102600002B601DE7D4F88031304629460592CDF87D
:1026100010C09847DDF810C0059A00283FF410AFAD
:10262000BAF1000F03D0236823F480732360013ACA
:10263000012A0ED8B8450AD9D4F87C31304618F8AA
:10264000011D2A4698472369013B2361F2E70125D2
:10265000AEE00BF1FF33062B22D8BBF1020F12D9EB
:10266000ABF1030B5FFA8BFBCBEB080BD84517D014
:10267000D4F87C31304618F8011D2A469847236962
:10268000013B2361F2E7B845E1D9D4F87C3130460B
:1026900018F8011D2A4698472369013B2361F2E798
:1026A0002368DA052CD55B050CD5B845CFD9D4F80D
:1026B0007C31304618F8011D2A4698472369013BB2
:1026C0002361F2E718F8011C2369652903F1FF3340
:1026D00008F1FF3B23610DD045290BD0D4F87C31A4
:1026E00030462A469847236918F8021C013BA8F196
:1026F000020B2361D4F87C3130462A469847D846ED
:10270000256815F0100552D188F80050236803F4AD
:10271000C063B3F5806F05D1019BC3EB0A035A4236
:102720006BB916E0029BA3B1039B2A46591C3046A5
:102730000A2300F05DFF029BDDF80C80C21A04F250
:102740006F13984528BF04F5B77840461A4900F042
:1027500071F830463946002200F02AF92268064610
:1027600012F0020F0F46D9F8003003D01A1DC9F835
:10277000002006E012F0040F03F10402C9F8002063
:1027800003D01B68C3E900670DE0D3F8008000F0B8
:1027900015F810B900F04AF803E03046394603F066
:1027A000ADFCC8F80000E3680133E36000E00025F9
:1027B000284607B0BDE8F08F296A000031F00043D9
:1027C00010B51BD00F4AA1F58014944210D901F125
:1027D000FF410C4A01F5E001914209D9B3F5801F90
:1027E00008D3094A934207D1B0FA80F0400910BDDE
:1027F000042010BD032010BD002010BD0028E6D12C
:10280000022010BDFFFFDF7F0000F07F38B5064CCF
:102810000023054608462360FDF790FE431C02D1C5
:10282000236803B12B6038BD98030010004870473F
:102830000000C07F0EB400B54FF402719CB0ADF83B
:1028400014106FF00041049107914FF6FF711DAB1A
:10285000ADF81610084953F8042B0290069008684A
:1028600002A9019302F080FE029B00221A701CB0A4
:102870005DF804EB03B070473001001010B50C4652
:10288000B1F90E1002F062FF0028ABBF636DA3899F
:102890001B1823F48053ACBF6365A38110BD2DE9E1
:1028A000F0411D468B890746DB050C46164605D5CB
:1028B000B1F90E100022022302F05AF9A38938461A
:1028C00023F48053A381B4F90E1032462B46BDE8A1
:1028D000F04100F067BF10B50C46B1F90E1002F0E0
:1028E00047F9431CA38915BF606523F4805343F463
:1028F0008053A38118BFA38110BDB1F90E1000F061
:10290000CFBF034613F8012B002AFBD1181A013858
:10291000704770B5A2B1451E01396B7811F8014FAF
:102920006E1CA34206D16FF00104641B1444E04204
:1029300002D11C46181B70BD3546002BEDD1F8E7BF
:10294000104670BD30B5036811F8014B01334CB12E
:102950001A78A2F14105192D98BF2032A242F3D076
:10296000002030BD0360012030BD2DE9F0410F464D
:10297000904602F043FC04460D46B8F1000F11D01A
:10298000C7F30A53C3F16B03002B0BDD1B0503F1E7
:102990007F55002405F5401522462B4603F0CCF860
:1029A000BDE8F08120462946BDE8F0810000000026
:1029B0002DE9F04F00239FB01A9382460B460391F6
:1029C00015924FF000084FF000091993199B1A78DF
:1029D0000D2A05D8092A13D2002A00F0B78111E088
:1029E0002B2A06D02D2A02D0202A0BD108E0012262
:1029F00000E0002209925A1C19925B7823B9A5E1E4
:102A00000133E2E700230993199C2378302B5CD132
:102A10006378582B01D0782B4CD11AAB0093099BCB
:102A20005046019319A9AE4A1BAB01F0DCFD10F032
:102A30000706054600F0A585062E05D101340023C2
:102A40001994099300F09DBD1A9A3AB11CA835213A
:102A500002F0C1FC50461A9902F038F91B9A062E72
:102A600021D8DFE806F0040D08171C0D04004FF014
:102A70000009C84617E0DDF87080DDF8749012E0B8
:102A80001D9B02F2334223F48013DDF8708043EA89
:102A9000025908E0DFF84C924FF0000803E06FF0B5
:102AA00000494FF0FF38290740F16B8549F0004994
:102AB00000F067BD199B5A1C19925B78302BF9D036
:102AC000002B00F05E85012300E000230026B346C2
:102AD00035460493199B0793199C2778A7F1300377
:102AE000DAB2092A0CD8082D4FF00A0204F10104C9
:102AF000D4BF02FB0B3B02FB063601351994EBE712
:102B0000504602F031F801685046059102F02CF869
:102B10000068FFF7F6FE059902462046FFF7F9FE2A
:102B200028B100203B462C460246074657E0059058
:102B3000504602F019F80068FFF7E3FE199B05996B
:102B40001A1819921B5C002D41D12846302B05D153
:102B5000199B01305A1C19925B78F7E7A3F13102F7
:102B6000082A42D8199A0792024600200446303BB0
:102B700000F1010125D00A4421460719B94211D0BC
:102B8000013101F1FF3EBEF1080F04DC4FF00A0EE7
:102B90000EFB0BFBF2E71029DCBF4FF00A0E0EFB19
:102BA00006F6EBE72044082800F1010403DC0A21C3
:102BB00001FB0B3B04E0102CDCBF0A2101FB0636B5
:102BC0000021199B581C19905B78084602E02C469E
:102BD00008460A46A3F130010929C8D90127652B07
:102BE00001D0452B64D16CB904E0652B40F0D7844B
:102BF0000022012728B9049B002B00F0A78004467F
:102C000000E00024199B039301331993039B5B7825
:102C10002B2B07D02D2B02D04FF0000C09E04FF0EA
:102C2000010C01E04FF0000C039B02331993039B4E
:102C30009B78A3F13001092938D81946302904D1ED
:102C4000199B591C19915978F8E7A1F1310EBEF181
:102C5000080F0B462CD8A1F130030593199B06935E
:102C6000199B03F1010ECDF864E05B78A3F130010C
:102C7000092908D805994FF00A0E0EFB0131A1F180
:102C800030030593ECE70699C1EB0E0EBEF1080F79
:102C900044F61F6E04DC05997145A8BF714600E03B
:102CA0007146BCF1000F04D0494202E0039919912A
:102CB0000021002C54D1002840F06384049A002A9B
:102CC00040F05F84002F41D14E2B20D002DC492BF5
:102CD0000AD03BE0692B07D06E2B18D036E000BF3E
:102CE000706A00000000F07F19A8AA49FFF72AFEC9
:102CF00060B3199B19A8013BA7491993FFF722FE5E
:102D000010B9199B01331993DFF8A4921AE019A89E
:102D1000A249FFF717FEC8B1199B1B78282B0FD1CA
:102D200019A89F491CAA01F095FE052808D11D9BF2
:102D3000DDF8708043F0FF4949F4E00900F021BC60
:102D4000DFF870924FF0000800F01BBC039B199352
:102D5000159B002B00F020840023099300F013BC86
:102D60008B1A06932B46002D08BF23465846102C7D
:102D700025460393A8BF102502F068FE092D804662
:102D8000894613DD874B03EBC50353E9122302F099
:102D9000D3FE80463046894602F058FE02460B4676
:102DA0004046494602F016FD804689460F2C36DC27
:102DB000069B002B00F0E58324DD162B07DC794A07
:102DC00002EBC302D2E900014B46424615E0069AE7
:102DD000C4F125039A4222DC724DC4F10F0405EBC5
:102DE000C403D3E9000142464B4602F0A5FE069B10
:102DF0001C1B05EBC405D5E9002302F09DFE8046AF
:102E00008946BEE3069B13F1160F08DB654A404670
:102E1000A2EBC30249460CCA02F0B8FFEFE7069BDB
:102E2000651B1D44002D58DD15F00F020AD05D4BC7
:102E300003EBC203D3E9000142464B4602F07CFE9D
:102E40008046894635F00F0500F0BA80B5F59A7FC7
:102E50000FDD4FF0000BCDF80CB0CDF81CB0CDF865
:102E600014B02223CAF80030DFF844914FF0000874
:102E700083E14946DFF8409140464E462D11002738
:102E8000012D0ADDEA0703D5D9E9002302F054FE3B
:102E900001376D1009F10809F2E78046A1F1547974
:102EA00006EBC7064246D6E900014B4602F044FE57
:102EB00021F0004389460A461B0D3B491B058B4206
:102EC0008046C6D8A1F580118B4286BFDFF8EC9012
:102ED0004FF0FF3802F1547972E071D06D4215F075
:102EE0000F020AD02F4B404603EBC2034946D3E9F9
:102EF000002302F04BFF804689462D1160D01F2D24
:102F000008DD4FF0000BCDF80CB0CDF81CB0CDF8BB
:102F100014B02BE14046494615F0100F0CBF0023BA
:102F20006A23224E0493002D08DDEB0703D5D6E972
:102F3000002302F001FE6D100836F4E7049B804682
:102F40008946EBB1C1F30A53C3F16B03002B0A4668
:102F500016DD1F2B0EDD342BDEBF203B4FF0FF3183
:102F600001FA03F34FF00008CCBF4FF05C7903EA9D
:102F7000020905E04FF0FF3202FA03F303EA00080A
:102F8000404649460022002303F03EF80028B8D10D
:102F900018E000BFFA690000886B0000026A0000B8
:102FA000306A0000A06B00000000A07C486A0000AE
:102FB0000000F07F0000F8FF686C0000FFFFEF7F6B
:102FC00000230493CDF800B050460799039A234696
:102FD00001F0D1FE079000283FF43BAF069A069B14
:102FE000002AC3F100034FF0000BA8BF00230E938B
:102FF000CDF80CB0079B5046596801F032FE0590A1
:1030000000283FF42EAF079B0C301A69079B023251
:1030100003F10C019200FEF793FB1BAB00931CAB7A
:103020000193504642464B46CDE90A8902F059F9D0
:103030001A9000283FF415AF5046012101F028FFF7
:10304000039000283FF40DAF069B049923EAE37731
:103050001B9B1C9C002BAABF0E9AFA1AD618A3EB36
:10306000010323446FF47F71ACBF3A460E9E8B423E
:10307000C4F1360480F28680C91A1F29A4EB01042A
:10308000C8BFB3494FF00100D5BF00FA01F3C91A18
:10309000149300FA01F3D9BF00230F930F931490F8
:1030A0003519049BB54214441C442B46A8BF334633
:1030B000A342A8BF2346002BC2BFED1AE41AF61A9A
:1030C0000E9B002B63D1002D7BDC002F40F0838012
:1030D000002C00F38A80002E00F3918050461A994C
:1030E000059A02F02CF8834600283FF4BAAEC36874
:1030F0000024C4600399089302F005F8A04280F20E
:103100008D80089B002B40F01582B8F1000F40F035
:103110001182C9F31303002B40F00C8229F0004305
:103120001B0D1B05B3F1D66F40F20482DBF814309F
:10313000002B6ED059460122504601F091FF0399B1
:10314000834601F0E0FF002840F3F48129F00043BA
:10315000049A1B0D1B05002A00F08F80B3F1D66F77
:1031600000F38B80B3F15C7F00F3E68122234FF004
:1031700000084FF00009CAF80030079B002B40F010
:10318000EC81FEE100230F930123149388E71A4694
:103190005046039901F016FF0390034600283FF4C0
:1031A00060AE504619461A9A01F07BFE089000283E
:1031B0003FF457AE50461A9901F088FD089B1A93C8
:1031C00081E750461A992A4601F04AFF1A900028D2
:1031D0007FF47BAF45E6504605993A4601F0F2FE92
:1031E000059000287FF474AF3BE6504605992246CF
:1031F00001F036FF059000287FF46DAF31E65046B0
:103200000399324601F02CFF039000287FF466AF4B
:1032100027E6DBF81030012B8CDC8BE162D1089AB9
:10322000C9F3130322B34B494A468B422ED1049B68
:10323000414663B1484B1340B3F1D46F07D81B0D1F
:10324000C3F16B034FF0FF3000FA03F301E04FF0DE
:10325000FF3399421AD1414B9A4202D101313FF4D6
:1032600000AE3D4B4FF00008134003F5801961E1BB
:1032700063B9B8F1000F09D168E7A3F580136FEACD
:1032800013594FF0FF386FEA095953E10F9B13B1FF
:1032900013EA090F02E0149B13EA080F00F04A81B9
:1032A000089B40464946049A53B1FFF75EFB02462D
:1032B0000B46DDE90A0102F08DFA8046894639E1C4
:1032C000FFF753FB02460B46DDE90A0102F080FAE4
:1032D000002200238046894602F096FE00287FF4F3
:1032E00045AF27E15846039902F04DF800224FF010
:1032F000804306460F4602F09BFE00283FD0089B05
:1033000013B10026164F10E0B8F1000F03D1C9F336
:1033100013033BB90BE0B8F1010F03D1B9F1000F72
:103320003FF424AF0F4F002600240D4D3CE0304603
:10333000394600220A4B02F071FEB8B930463946D0
:103340000022094B02F0F8FB04460D4610E000BFD6
:10335000E3FBFFFFFFFF0F000000F07FFFFFEF7FA9
:103360000000F03F0000F0BF0000E03F089C9A4DD5
:1033700005F1004316941793DDE9166714E0964BA8
:1033800030463946002202F0D7FB089B04460D4622
:1033900023B901F100431090119303E002460B465C
:1033A000CDE91023DDE9106729F0004C4FEA1C5CE1
:1033B0008A4B4FEA0C5C9C4531D1DDE90A23A9F127
:1033C000547940464946CDF83CC0CDE90C2301F084
:1033D00015FF02460B463046394602F0ADFB024669
:1033E0000B464046494602F0F5F921F000431B0D1B
:1033F0007B4A1B0593428046DDF83CC00CD9794BD3
:103400000D9A9A4203D10C9B01333FF42AADDFF8A9
:10341000D4914FF0FF387CE001F1547944E0049BF3
:1034200063B3BCF1D46F29D863A3D3E9002320464A
:103430002946CDF83CC002F0FBFDDDF83CC0C8B128
:103440002946204602F03AFE002808BF012002F07B
:10345000FDFA089B04460D46DDF83CC023B901F196
:1034600000431290139303E002460B46CDE912236A
:10347000DDE9126707F1D663CCEB0307DDE90A014A
:10348000CDF83CC001F0BAFE02460B463046394644
:1034900002F052FB02460B46DDE90A0102F09AF9FE
:1034A00080468946DDF83CC0049B4E468BBB29F024
:1034B00000431B0D1B059C452BD12946204602F0DD
:1034C000D5FD02F0D3FA0B4602462946204602F00B
:1034D0007FF9089B04460D462BB9B8F1000F02D1C5
:1034E000C9F313067EB136A3D3E90023204629464B
:1034F00002F094FD88BB34A3D3E90023204629467B
:1035000002F0AAFD04E032A3D3E9002302F086FD15
:1035100018BB50461A9901F0D9FB5046059901F0A5
:10352000D5FB5046039901F0D1FB5046594601F0B6
:10353000CDFB5FE5049B83B12B4B40460D930023ED
:103540000C934946DDE90C2302F0F6FA80468946E1
:1035500019B910B92223CAF8003050461A9901F05F
:10356000B5FB5046059901F0B1FB5046039901F0B7
:10357000ADFB5046079901F0A9FB5046594601F0B2
:10358000A5FB159B13B1199B159A1360099B1BB1E1
:10359000424609F1004307E042464B4604E000245E
:1035A00022460127FFF71DBB104619461FB0BDE894
:1035B000F08F00BFAFF300800000C0FFFFFFDF41CE
:1035C0009535A094FFFFDF3F35E5AF350000E03FC4
:1035D0009535A094FFFFCF3F0000E03F0000E07F63
:1035E000FFFF9F7CFFFFEF7F00005039AFF30080AB
:1035F0002DE9F0470F46404CD4F800903D4615F8B1
:1036000001EB09EB0E04667806F0080404F0FF06EF
:103610000CB12F46F2E774462D2C03D1BD1C7C78EB
:10362000012603E02B2C04BF7C78BD1C13B1102BAA
:103630000AD15AE0302C56D12C7804F0DF04582CF3
:103640004CD16C7810230235002E14BF4FF0004887
:103650006FF00048B8FBF3FA0027BE4603FB1A8858
:1036600009EB040C9CF801C01CF0040F01D0303CA5
:103670000BE01CF0030C1BD0BCF1010F0CBF4FF092
:10368000370C4FF0570CCCEB04049C4210DAB7F126
:10369000FF3F0AD0D64506D801D1444503DC03FBE1
:1036A0000E4E012701E04FF0FF3715F8014BD7E729
:1036B0007C1C73460AD1002E4FF0220114BF4FF03C
:1036C00000436FF0004301602AB911E00EB1CEF162
:1036D00000036AB107B1691E116009E03024002BB4
:1036E000B2D10823B0E70A23AEE7302CACD1A3E770
:1036F0001846BDE8F08700BF3401001070B50D46D4
:103700001446064618B183690BB9FDF743FF224BF7
:103710009C4201D1746808E0204B9C4201D1B468FE
:1037200003E01F4B9C4208BFF468A369A360A38910
:103730001A0709D523693BB123682069EDB2181A2D
:10374000636998420FDB08E03046214600F03CF800
:103750000028F1D04FF0FF3070BD30462146FDF714
:103760009DFE0028F6D1A3680130013BA3602368C9
:103770005A1C22601D706369984204D0A389DB073C
:1037800007D50A2D05D130462146FDF787FE0028D2
:10379000E0D1284670BD00BF7C6900009C69000034
:1037A000BC69000038B5074C05460020206008467B
:1037B00011461A46FCF72EFE431C02D1236803B1C2
:1037C0002B6038BD98030010314B70B51D6806465C
:1037D0000C4625B1AB6913B92846FDF7DBFE2D4B2E
:1037E0009C4201D16C6808E02B4B9C4201D1AC6833
:1037F00003E02A4B9C4208BFEC68A3899AB21107E8
:103800001DD4D50602D40922326038E0500712D503
:10381000616B41B104F14403994202D03046FDF797
:10382000A3FF00236363A38923F02403A381002360
:10383000636023692360A38943F00803A38123699C
:103840004BB9A38903F42073B3F5007F03D030464E
:10385000214601F09FF9A38913F0010205D000224F
:10386000A26062695242A26103E0990758BF62698F
:10387000A26022694AB903F0800080B230B143F0FF
:103880004003A3814FF0FF3070BD002070BD00BF2A
:10389000300100107C6900009C690000BC690000D8
:1038A00038B5064C0023054608462360FCF79CFD0E
:1038B000431C02D1236803B12B6038BD980300106C
:1038C0002DE9F74F03690C698046A3427EDB013C7A
:1038D00001F114074FEA840E00F1140606EB0E0303
:1038E00057F82450019356F824300135B3FBF5F511
:1038F00007EB0E09BDB34FF0000A3846B446D34675
:1039000050F8043B9AB21B0C02FB05A26B4303EB7D
:10391000124392B2C2EB0B0BBCF800204FEA134AE1
:103920005A441FFA83FBDCF800304845CBEB1343C5
:1039300003EB224392B242EA03424FEA234B4CF894
:10394000042BDDD956F80E306BB9019B043BB34212
:103950001A4602D8C8F8104005E01268043B002A55
:10396000F8D1013CF3E7404601F0CDFB00282BDB0A
:10397000304601354FF0000E57F8042B036891B222
:10398000C1EB0E0E120C99B27144C2EB134303EB60
:10399000214389B24FEA234E4F4541EA034340F8A1
:1039A000043BE9D956F8242006EB840362B9043BB2
:1039B000B3421A4602D8C8F8104005E01268043B2A
:1039C000002AF8D1013CF3E7284600E0002003B0CC
:1039D000BDE8F08F000000002DE9F04F456A95B07A
:1039E0008246219CCDE9022345B91020FDF792FEC5
:1039F000CAF82400456085600560C560DAF82430A7
:103A0000196859B15A68012393404A608B60504647
:103A100001F05CF9DAF8243000221A60039BA24A14
:103A2000002BBDBF01232360039B0023BCBF23F0F9
:103A300000430393039FA8BF236027F000431B0D9F
:103A40001B0593421DD142F20F73209A1360029B13
:103A500043B9964A964BC7F31300002814BF184683
:103A6000104600E09248229B002B00F06985C37845
:103A700013B100F1080300E0C31C229A136000F0A8
:103A80005FBDDDE90245002220462946002302F001
:103A9000BBFA804658B1209A01231360229B002B69
:103AA00000F03C8583481860013800F049BD13AB35
:103AB000009312AB0193504622462B4601F011FCB5
:103AC000C7F30A5607905EB1C5F3130343F07F5165
:103AD000204641F44011A6F2FF36CDF844801DE0A7
:103AE000139B129E1E446FF482639E42A1BF029AF2
:103AF00006F2124322FA03F06F4BB7BF6F4B9B1BCA
:103B0000029A9B1BAABF9F4002FA03F0384301F0C0
:103B10009DFF0123A1F1F871013E11930022684B32
:103B200001F056FE5AA3D3E9002302F005F85AA388
:103B3000D3E9002301F04EFE044630460D4601F065
:103B400095FF57A3D3E9002301F0F6FF02460B4689
:103B50002046294601F03EFE04460D4602F086FA54
:103B60002946834600222046002302F057FA58B126
:103B7000584601F07BFF02460B462046294602F0DC
:103B800043FA08B90BF1FF3BBBF1160F0DD84D4BB3
:103B900003EBCB03D3E90001DDE9022302F05CFA79
:103BA00030B10BF1FF3B002300E00123109300E054
:103BB0001090129B9E1B731E0A9345BF5B42099394
:103BC000002300234CBF0A930993BBF1000F07DBCE
:103BD0000A9BCDF834B05B440A9300230B9308E0B2
:103BE000099BCBEB03030993CBF100030B93002359
:103BF0000D931E9B092B29D8052BC4BF043B1E9394
:103C00001E9BC8BF0025A3F10203D8BF0125032BCB
:103C100021D8DFE803F0020E0410002300E00123A6
:103C20000C931F9B002B20DC0123069305931A465F
:103C300019E0002300E001230C931F9B5B440693D3
:103C40000133012B0593B8BF012311E001250023A7
:103C50001E930C9501E001230C934FF0FF33069364
:103C60000593002212231F9202E01F9B06930593E7
:103C7000DAF8244000226260042101F114029A4221
:103C800022D86268490001326260F6E7AFF3008033
:103C900061436F63A787D23FB3C8608B288AC63F52
:103CA000FB799F501344D33F0000F07F856B0000E9
:103CB0008E6B0000066A00000EFCFFFFEEFBFFFFAC
:103CC0000000F83FA06B00005046616800F0C9FF9B
:103CD000DAF8243020601B680893059B0E2B00F255
:103CE0004781002D00F04481DDE90223BBF1000F84
:103CF000CDE90E2331DDB14A0BF00F034FEA2B164D
:103D000002EBC303F006D3E900450CD5DDE90E0153
:103D1000AB4B06F00F06D3E9082302F037F8032770
:103D2000CDE9020100E00227DFF8948276B1F107C5
:103D300008D5D8E900232046294601F0FDFE0446B7
:103D40000D460137761008F10808EFE7DDE90201BA
:103D500022462B4602F01AF81BE0CBF10004DCB13E
:103D6000DDE90E01954B04F00F0203EBC203D3E92A
:103D7000002301F0E1FE924D241102274CB1E2072D
:103D800004D5D5E90023013701F0D6FE64100835CB
:103D9000F4E7CDE9020100E00227109BDBB1DDE989
:103DA0000245002220462946864B02F037F990B1A1
:103DB000059B83B1069B002B40F3D6802946204605
:103DC0000022814B01F0B8FE0BF1FF36CDE9020174
:103DD0000137069D01E05E46059D3846DDE9028912
:103DE00001F044FE42464B4601F0A6FE774B00220E
:103DF00001F0F0FCCDE90201039BA3F150740394A0
:103E0000CDB9404649460022714B01F0E1FC029ACF
:103E100023468046894602F01FF9002840F0408280
:103E200040464946029A04F1004302F0F7F80028A0
:103E300040F0308298E0614B0C996A1E03EBC2039C
:103E4000002947D0D3E900230020624901F09EFFFA
:103E5000DDE9022301F0BCFCCDE90201089C4946E2
:103E6000404602F003F9074601F000FE02460B4609
:103E70004046494601F0ACFCDDE90223303704F846
:103E8000017B8046894602F0C9F8002840F037835C
:103E900042464B4600204B4901F09AFCDDE90223E3
:103EA00002F0BCF8002840F0D080089BE31AAB4237
:103EB0005ADADDE902010022434B01F03DFE002207
:103EC000CDE90201404B4046494601F035FE8046AF
:103ED0008946C4E7D3E90001DDE9022301F02CFEA5
:103EE000089BCDE902015C191D464946404602F097
:103EF000BDF8074601F0BAFD02460B46404649466A
:103F000001F066FC303705F8017BA5428046894602
:103F100023D100222F4BDDE9020101F05BFC0246B8
:103F20000B464046494602F097F8002840F08D8045
:103F3000DDE902230020274901F04AFC02460B4636
:103F40004046494602F06AF870B114F8013C621E1E
:103F5000302B40F0D4821446F7E700221A4B01F0D0
:103F6000EBFD80468946C0E7DDE90E23CDE902235B
:103F7000139B002BC0F28A80BBF10E0F00F38680EA
:103F80000E4B03EBCB03D3E900671F9B002B23DA17
:103F9000059B002B20DC40F07C81304600220C4B3E
:103FA000394601F0C9FDDDE9022302F04BF8059D19
:103FB0002E46002840F06F8174E100BFA06B000026
:103FC000686C00000000F03F0000244000001C402E
:103FD000000014400000E03F089CDDE90289324601
:103FE0003B464046494601F0D1FE02F03FF8054607
:103FF00001F03CFD32463B4601F09EFD0B46024679
:104000004946404601F0E4FB05F1300E089B04F8F8
:1040100001EBC3EB040E059B9E452AD102460B46DD
:1040200001F0D8FB32463B468046894602F014F840
:1040300070B94046494632463B4601F0E5FF00284C
:1040400000F05E82EB0703D45AE2B34600E01C4660
:1040500014F8012C631E392A07D1089A9342F6D12D
:104060003023137013460BF1010B1A7801321A70CA
:1040700046E20022A34B01F05FFD002200238046B0
:10408000894601F0C1FF0028A9D039E20C9A002A24
:1040900032D01E9A012A0ADC119A12B103F233437C
:1040A00002E0129BC3F136030B9D099C18E0059BAF
:1040B0005D1E0B9BAB42B7BF0B9B5D1BEA1A0D9BB2
:1040C000BEBF0B959B180D93059BB8BF0025002B19
:1040D000B9BF099B059A099C059BBCBF9C1A00238C
:1040E000099A50461A4409920A9A01211A440A92DE
:1040F00000F0CEFE064602E00B9D099C0C9E64B1CA
:104100000A9B002B09DDA342A8BF2346099AE41AA3
:10411000D21A09920A9AD31A0A930B9B002B20DD1C
:104120000C9BC3B1002D10DD31462A46504600F0ED
:1041300049FF0646079A3146504600F0B2FE074650
:104140000799504600F0C2FD07970B9B5A1B08D0F9
:104150005046079902E0504607990B9A00F032FF4B
:1041600007905046012100F093FE0D9B0546002B61
:104170000ADD29461A46504600F024FF1E9B0546DC
:10418000012B04DD00271BE01E9B012B13DC029B8F
:104190008BB9039BC3F313037BB9039B23F0004745
:1041A0003F0D3F0557B1099B0127013309930A9B36
:1041B00001330A9302E0002700E0029F0D9B43B108
:1041C0002B6905EB8303186900F015FEC0F1200090
:1041D00000E001200A9B184410F01F0008D0C0F135
:1041E0002003042B02DDC0F11C0002E008D01846B9
:1041F0001C30099B0444034409930A9B03440A931B
:10420000099B002B05DD504607991A4600F028FF50
:1042100007900A9B002B05DD294650461A4600F000
:104220001FFF0546109BEBB10798294600F06BFF76
:10423000002817DA0023504607990A2200F05DFD96
:104240000C9B0BF1FF3B0790002B00F06B8131467C
:10425000002350460A2200F050FD069B0646002B24
:1042600033DC68E1059B002B26DC1E9B022B23DD43
:10427000059B0693069B73B929460522504600F01C
:104280003CFD05460798294600F03DFF002809DC63
:1042900001E000252E461F9B089C6FEA030B08E0F7
:1042A000B3462E46089B089A5C1C312313700BF111
:1042B000010BB14600260FE10C9B23B9059B069329
:1042C000089F079CC9E0059B0693002C05DD31463D
:1042D0005046224600F0C4FE0646AFB17168504613
:1042E00000F0BFFC0446326906F10C010232920074
:1042F0000C30FDF725FA50462146012200F0B0FEB1
:10430000814602E000002440B146089F079C2946F0
:104310002046FFF7D5FA3146099000F130082046D3
:1043200000F0F1FE4A4605902946504600F007FF8E
:10433000C26803463AB919462046079300F0E3FEE7
:10434000079B024600E0012250461946079200F002
:10435000BDFC079A92B91E9B83B9029B03F001032F
:1043600063B9B8F1390F3B4607943ED0059B7C1CDE
:10437000002BC4BF099B03F131083DE0059B002BD6
:1043800004DA002AC446079408DC21E024D11E9BED
:1043900013BB029B03F00103F3B9F2E721460122AC
:1043A00050460597CDF8088000F05AFE2946079040
:1043B00000F0A9FE0028DDF808C0059B03DC07D14A
:1043C00018F0010F04D0B8F1390F0ED008F1010C2C
:1043D0007C1C87F800C07FE0002A07F101020EDD97
:1043E000B8F1390F3B46079403D1392201371A70CF
:1043F00057E0144608F1010887F800806CE0089B3C
:104400001746D31A02F8018C069A93423AD02146F5
:104410000A220023504600F070FC4E450446314607
:1044200050464FF00A024FF0000304D100F065FC43
:10443000064681466BE700F060FC494606460A22C4
:104440005046002300F059FC814660E72146504663
:104450000A22002300F051FC044620462946FFF7BB
:104460002FFA089B00F1300807F8018B069AFB1A17
:104470009342EBDB089BB146012AACBF9B1801338A
:104480001F46002621460122504600F0E9FD29463C
:10449000079000F038FE002803DC15D118F0010F5A
:1044A00012D03C4614F8013C621E392B09D1089BFE
:1044B0009A4204D10BF1010B3123089A02E0144611
:1044C000F0E70133137007E03C4614F8013C621E2C
:1044D000302B01D11446F8E75046294600F0F6FB90
:1044E000B9F1000F0CD02EB14E4503D050463146E5
:1044F00000F0ECFB5046494600F0E8FB00E0B34614
:104500005046079900F0E2FB0023209A23700BF13C
:1045100001031360229B1BB11C6001E00A480FE0FD
:1045200008980DE0069B002B3FF7CAAE1E9B022B9E
:104530003FF7A0AEC4E61E9B022B3FF79BAEC4E63E
:1045400015B0BDE8F08F00BF056A0000AFF3008032
:10455000F0B506694B11B34200F1140527DA11F0EA
:104560001F0105EB860605EB830201D1294616E003
:10457000141D55F823202B46C1F1200ECA40B44229
:1045800009D2276807FA0EF73A4343F8042B54F888
:10459000042BCA40F3E71A6052B1043308E0B24278
:1045A0000B4605D252F8043B41F8043BF7E72B4693
:1045B0005B1B9B10036103B94361F0BDA0F13003A5
:1045C000092B01D820380AE0A0F16103052B01D89E
:1045D000473804E0A0F14103052B02D82738C0B2C8
:1045E0007047002070472DE9F04F89B08A46914608
:1045F0000493019000F0B8FA03680026184602936D
:10460000FEF77FF9029B0090034413F8013C0593E9
:10461000DAF800300233984613F8010B302801D144
:104620000136F8E7FFF7CAFF0446E8B940460299A9
:10463000009AFEF76EF9002837D1009B18F80300A6
:1046400008EB0307FFF7BAFF88B33B461878984694
:10465000302803F10103F9D0FFF7B0FFB0FA80F57D
:104660003C466D09012601E000252C46C3465F4605
:1046700038780BF1010BFFF7A1FF0028F7D138467E
:104680000299009AFEF745F958B95CB9009BFC18ED
:10469000A3465F4638780BF1010BFFF78FFF002828
:1046A000F7D134B1E41BA40003E0474600E0044620
:1046B00001253B78502B01D0702B30D17B782B2BF0
:1046C00006D02D2B02D07A1C002303E0012300E04A
:1046D0000023BA1C107806930392FFF76FFF411E68
:1046E000C9B21829039A069B19D8A0F1100B12F829
:1046F000010F069303920792FFF760FF411EC9B2B4
:104700001829039A069B05D80A2101FB0B0BABF174
:10471000100BECE70BB1CBF1000B5C4400E03A4628
:10472000CAF8002025B1002E14BF002006207CE12D
:104730002946C8EB0703013B072B02DD01315B1063
:10474000FAE7019800F08DFA4FF0000A00F1140B1F
:1047500005465E46D446474537D97B1E0393059AE6
:1047600017F8013C934209D0BCF1200F1AD1C6F8CA
:1047700000A04FF0000A0436D44613E0009B039AD1
:10478000C3F1010313444345EED318460299009A3E
:10479000CDF81CC00693FEF7BCF8069BDDF81CC0E4
:1047A00088B1E1E717F8010CCDF818C0FFF706FF54
:1047B000DDF818C000F00F0000FA0CF0039B4AEA85
:1047C000000A0CF1040C1F46C5E746F804ABCBEB1E
:1047D0000606B01028614701504600F00CFBD9F8DE
:1047E0000060381AB04226DD871B3946284600F0A3
:1047F0000CFEC8B17B1E5A1103F01F014FF00108D7
:104800005BF8222008FA01F111420ED0434502DC88
:104810004FF0020809E02846B91E00F0F6FD002816
:10482000F6D04FF0030800E0804628463946FFF7EF
:104830008FFE3C440CE009DA371A294601983A46C3
:1048400000F00EFC0546E41B00F1140B4FF00008CD
:10485000D9F808309C4208DD0198294600F036FA64
:10486000129A00231360A320DFE0D9F804008442E9
:1048700053DA041BB4422EDBD9F80C30022B1AD0C9
:10488000032B1CD0012B1DD1B4421BD1012E0BDCFC
:10489000D9F80430049A6220136001232B61CBF80D
:1048A0000030129B1D60C0E02846711E00F0ADFD77
:1048B0000028EDD106E0139B002BE9D002E0139B0A
:1048C000002BE5D10198294600F000FA129A002346
:1048D00013605020A9E0671EB8F1000F07D1002F28
:1048E00007DD2846394600F090FD804601E04FF094
:1048F00001087A115BF8222007F01F070123BB4053
:1049000013422146284618BF48F00208361BFFF71D
:104910001FFE0227D9F8044000E00127B8F1000F7C
:104920007ED0D9F80C30022B0ED0032B10D0012BE7
:1049300074D118F0020F71D0DBF8000048EA0008CB
:1049400018F0010F07D169E0139BC3F10103139322
:10495000139B002B62D0D5F810A005F114034FEA89
:104960008A0803EB08011A68501C02D001321A6051
:1049700021E0002243F8042B8B42F4D3AB689A4524
:1049800012DB69680198013100F06BF983462A69EE
:1049900005F10C01023292000C30FCF7D1FE2946E1
:1049A000019800F093F95D462B695A1C2A6105EBCA
:1049B000830301225A61022F05F1140210D1D9F8A4
:1049C0000030013B9E4226D17111012306F01F06E3
:1049D00052F82120B34013420CBF022701271AE0EE
:1049E0002B6953450ADD28460121FFF7B1FDD9F8AF
:1049F000083001349C423FF72FAF0BE016F01F0642
:104A000008D0904458F8040C00F0F5F9C6F12006DF
:104A1000B042E8DB012747F0200701E047F010072C
:104A20003846129B1D60049B1C6009B0BDE8F08FE6
:104A3000C2F10802920070B5C2F120064368056811
:104A400003FA06F42C43D340046040F8043F884244
:104A5000F4D370BD2DE9F04F0E681746751102EBC7
:104A6000850516F01F0318BF04350022A5F10409BF
:104A70008346C8464C46164685B0D0F800A0019340
:104A800045F8042C00921AF8011F00293AD0084674
:104A900003920291FFF792FD0299039AE8B9202947
:104AA00014D8009BB342EEDA444505D2072A03DC52
:104AB00020464146FFF7BCFFBC4221D9A4F10408BF
:104AC000002244F8042C00964446DCE7292945D10D
:104AD0000AF10103CBF8003014E00132082A06F194
:104AE000010606DDBC42CED9002244F8042C043C69
:104AF0000122216800F00F0040EA01102060C2E7A7
:104B00000822C0E756B3444505D2072A03DC2046F5
:104B10004146FFF78DFFBC420CD93B4654F8042BAD
:104B20004C4543F8042BF9D9002243F8042B4B459C
:104B3000FAD90BE0019B4BB1C3F1200655F8042CC8
:104B40004FF0FF33F340134045F8043C55F8043D63
:104B500033B9BD42FAD101232B6001E0042000E00B
:104B6000052005B0BDE8F08F0048704738010010FF
:104B700038B5074C054600202060084611461A4605
:104B8000FBF7AAFC431C02D1236803B12B6038BD9C
:104B900098030010F0B58B8991B09D0706460C462E
:104BA00025D4B1F90E10002908DAA389002513F0E5
:104BB000800F14BF40274FF480670DE001AA00F07A
:104BC000D7FD0028F1DB029D4FF4806705F47045A6
:104BD000A5F500514D424D4130463946FCF708FEDF
:104BE00060B9A3899A051DD443F00203A38104F19F
:104BF0004703236023610123636113E00A4BB3621F
:104C0000A389206043F08003A381206167614DB1D7
:104C10003046B4F90E1000F0BDFD18B1A38943F081
:104C20000103A38111B0F0BD15150000814210B53C
:104C300001EB020301D3421E0BE09842FBD2811824
:104C4000D21AD34204D013F8014D01F8014DF8E710
:104C500010BD994204D011F8014B02F8014FF8E75A
:104C600010BD70B5456A04460E463DB91020FCF7EC
:104C700051FD6062456085600560C560656AEB68EE
:104C800043B1636ADB6853F8260078B1026843F8E1
:104C9000262017E020460421212200F0D8FB636A79
:104CA000E860DB68002BECD1002070BD012101FA27
:104CB00006F56A1D2046920000F0C9FB0028F3D0DB
:104CC0004660856000230361C36070BD70B5446AAF
:104CD00006460D463CB91020FCF71CFD706244608E
:104CE00084600460C4603DB1736A6A68DB6853F82D
:104CF0002210296043F8225070BD2DE9F04106468C
:104D00000C460F69984601F1140E0023DEF80000EE
:104D1000013385B2010C02FB0585514301EB1541BE
:104D2000ADB24FEA1148BB4205EB01414EF8041BFE
:104D3000ECDBB8F1000F1BD0A3689F4212DB616867
:104D400030460131FFF78DFF0546226904F10C0161
:104D5000023292000C30FCF7F3FC21463046FFF79C
:104D6000B5FF2C4604EB87030137C3F81480276195
:104D70002046BDE8F0812DE9F843074615469846E0
:104D8000092208330C4693FBF2F2002101239A42D8
:104D900002DD5B000131FAE73846FFF762FF089B4E
:104DA000092D43614FF001030146036110DD04F159
:104DB0000906B1462C4419F8013B38460A22303B1B
:104DC000FFF79BFFA1450146F5D17419083C01E0AE
:104DD0000A34092526462B1B3344434508DA16F8C6
:104DE000013B38460A22303BFFF787FF0146F2E7D6
:104DF0000846BDE8F883030C1B0413B90004102314
:104E000000E0002310F07F4F04BF0002083310F0D1
:104E1000704F04BF0001043310F0404F04BF800006
:104E20000233002803DB420003D5581C70471846A4
:104E3000704720207047036813F007020BD0D90792
:104E400022D49A074BBF5B089B08036003604CBFEA
:104E500001200220704799B209B91B0C102213F0EF
:104E6000FF0F04BF1B0A0832190704BF1B090432D5
:104E7000990704BF9B080232D90702D45B0805D00A
:104E800001320360104670470020704720207047B1
:104E900010B50C460121FFF7E4FE012244610261D6
:104EA00010BD2DE9F74F14460A69236988469A42D6
:104EB000BEBF0B46A0461C46D8F81070D4F8109020
:104EC000D8F80830D8F8041007EB09069E42C8BF8E
:104ED0000131FFF7C6FE00F114052B4605EB860CE9
:104EE000634503D2002243F8042BF9E704F11402CE
:104EF00008F1140102EB890301EB87070093009B83
:104F000001929A4257D2B2F800B0BBF1000F23D001
:104F10008946AE464FF0000859F8044BBEF800A091
:104F2000A3B20BFB03A34FEA144ADEF8004043444C
:104F30004FEA14480BFB0A84F24604EB13449BB27D
:104F400043EA04434F454FEA14484AF8043B01D969
:104F5000D646E1E7CEF80480019B0432B3F802A004
:104F6000BAF1000F21D02C4689462B684FF000087B
:104F7000B9F800E0B4F802B09BB20AFB0EBEA3463B
:104F8000F04443EA08434BF8043B59F8043BB4F8B7
:104F900004E01B0C0AFB03E3B94503EB18434FEA9B
:104FA000134801D25C46E3E763600435A7E75CF889
:104FB000043D13B9013E002EF9DC066103B0BDE8E3
:104FC000F08F000012F003032DE9F04106460F4672
:104FD000154607D0214A013B52F823200023FFF752
:104FE0008CFE0746AD1035D0746A3CB91020FCF732
:104FF00091FB7062446084600460C460D6F82480D1
:10500000D8F808407CB9304640F27121FFF740FFE4
:105010000023C8F808000446036004E06D1019D0AE
:10502000206870B10446EB07F8D539462246304671
:10503000FFF737FF804639463046FFF747FE4746C1
:10504000ECE7304621462246FFF72BFF0023206085
:105050000360E7E73846BDE8F08100BF906C0000D0
:105060002DE9F0470C460746164623694FEA621AB7
:105070000AEB03094968A36809F101059D4202DDB5
:1050800001315B00FAE73846FFF7EBFD804600F19F
:1050900014010023534504DA002241F82320013390
:1050A000F8E72AEAEA73206901EB830316F01F028E
:1050B00004F1140101EB800E14D0C2F1200C002089
:1050C0000E689A469640304343F8040B51F8040B9F
:1050D000714520FA0CF0F3D3CAF8040048B109F185
:1050E000020506E0043B51F8042B714543F8042FF8
:1050F000F9D3013D3846C8F810502146FFF7E6FDC8
:105100004046BDE8F08703690A6910B59B1A11D1C2
:1051100092001430143183180A4453F8044D52F8A5
:10512000041D8C4202D007D3012010BD8342F4D865
:10513000002010BD184610BD4FF0FF3010BD2DE906
:10514000F84307460C46084611461546FFF7DBFFB5
:10515000061E08D138463146FFF783FD012303615F
:105160004661BDE8F883BCBF23462C4638466168DB
:10517000BABF1D4601260026FFF773FD2B69C660E6
:10518000266905F1140904F1140101EB860709EB06
:10519000830800F114054FF0000C51F8042B59F866
:1051A000044B93B29C44A3B2240CC3EB0C03C4EB9A
:1051B000124202EB23429BB24FEA224CC84543EA1B
:1051C00002428E4645F8042BE7D8BE450ED25EF863
:1051D000043B9AB262441B0C03EB224392B242EAB4
:1051E00003424FEA234C45F8042BEEE755F8043D03
:1051F0000BB9013EFAE70661BDE8F883104B0B409E
:10520000A3F15073002B02DD0020194670475B426A
:105210001B15132B4FF000004FF0000104DC4FF47E
:10522000002242FA03F17047322B4FF00102CEBF49
:105230001346C3F1330302FA03F31846704700BF65
:105240000000F07F2DE9F041056900F1140707EB3C
:10525000850555F8044C88462046FFF7CCFDC0F183
:1052600020030A28A5F10406C8F8003011DCC0F1BB
:105270000B0E24FA0EF1BE4241F07F538CBF55F85D
:10528000081C0021153043F4401321FA0EF184402C
:105290001BE0BE4286BFA5F1080655F8081C002198
:1052A000B0F10B0514D0AC40C0F12B0044F07F549A
:1052B00044F4401421FA00FEBE4244EA0E038CBFBF
:1052C00056F8044C0024C440A94044EA010204E01A
:1052D0000A4644F07F5343F4401310461946BDE894
:1052E000F0812DE9F3411C4601211546089F099ED6
:1052F000FFF7B7FCC4F31302C4F30A5480460CB1A1
:1053000042F480120192EDB102A840F8085DFFF767
:1053100092FD009B50B1019AC0F1200102FA01F107
:105320000B43C240C8F81430019201E0C8F81430B1
:10533000019B002B14BF02250125C8F81830C8F8BE
:10534000105009E001A8FFF776FD019B0125C8F880
:105350001430C8F81050203034B1A4F2334404445F
:105360003C60C0F1350009E0A0F2324008EB850353
:1053700038601869FFF73FFDC0EB451030604046CC
:1053800002B0BDE8F0812DE9F743884669468146C1
:10539000FFF758FF0F46064601A94046FFF752FFA8
:1053A0000D460446019A009BD8F810109B1AD9F8B4
:1053B00010203046521A03EB4213002BCCBF07EBF0
:1053C0000357A5EB0355394622462B4600F0DEFC79
:1053D00003B0BDE8F083013910B5491114690131FA
:1053E00002F1140300EB810103EB8404A3420246A3
:1053F00004D253F8042B40F8042BF7E78A4203D277
:10540000002342F8043BF9E710BD00F114020069E3
:105410004B11834210B50CDC0CDA11F01F0109D0DE
:1054200052F8234024FA01F000FA01F1A1420CD114
:1054300000E0034602EB8303934204D953F8041DB2
:105440000029F9D001E0002010BD012010BD38B5C1
:1054500002FB01F42146FCF7CBF9054618B1002107
:105460002246FCF778F9284638BDF8B507461546B8
:105470000E4621B91146BDE8F840FCF7B9B91AB992
:10548000FCF772F92846F8BD00F094F9A8420ED254
:1054900038462946FCF7ACF9044650B131462A4655
:1054A000FCF74EF938463146FCF75EF901E030462C
:1054B000F8BD2046F8BD2DE9F0478E688246B3421C
:1054C0000C469046994640D38A8912F4906F3AD0A0
:1054D0002568096902236F1A656905EB450595FB87
:1054E000F3F57B1C4B449D4238BF1D4653050FD539
:1054F0002946FCF77DF9064698B121693A46FCF742
:105500001FF9A38923F4906343F08003A38113E080
:105510002A46FFF7AAFF064670B950462169FCF7F4
:1055200023F90C23CAF80030A3894FF0FF3043F071
:105530004003A381BDE8F08726613E4426604E46C5
:105540006561ED1BA560B14500D24E46324620682C
:105550004146FFF76BFBA36800209B1BA3602368F9
:105560001E442660BDE8F0872DE9F0439DB003930B
:105570008B8906461C060D4690460CD50B6953B91F
:105580004021FCF735F92860286110B90C233360FD
:10559000CCE040236B610023099320238DF8293050
:1055A00030238DF82A3043461C4613F8012B1AB9D4
:1055B000B4EB08090FD002E0252AF5D1F8E7304610
:1055C000294642464B46FFF776FF013000F0A9809E
:1055D000099B4B4409932378002B00F0A280002301
:1055E0004FF0FF3204930793059206938DF85330E2
:1055F0001A9304F101084446DFF84891217848469F
:105600000522FCF78FF808F10108049B30B1C9EBC3
:1056100000000122824013430493ECE7D80644BF04
:1056200020228DF85320190744BF2B228DF85320D8
:1056300022782A2A02D0079923460EE0039A0134E1
:10564000111D12680391002ABBBF524243F00203AE
:1056500007920792B8BF04930AE01C4622780133F0
:10566000303A092A03D80A2000FB0121F5E7079107
:1056700023782E2B1AD163782A2B0AD1039B02346C
:105680001A1D1B680392002BB8BF4FF0FF33059320
:105690000CE0611C00220C4623780131303B092BC1
:1056A00003D80A2000FB0232F5E70592DFF8988064
:1056B000217840460322FCF735F838B1049AC8EB4C
:1056C00000004023834013430493013421781A4897
:1056D000062204F101088DF82810FCF723F888B1A0
:1056E000164B33B9039B073323F0070308330393A7
:1056F00013E003AB0093304604A92A46104BFCF795
:105700009BFA07E003AB0093304604A92A460C4BF2
:10571000FCF74EFD421C074603D0099B3B4409930E
:1057200041E7AB895B0601D4099801E04FF0FF30F7
:105730001DB0BDE8F08300BFEE690000391C000019
:10574000B7540000E4690000EA69000038B5074C6E
:10575000054600202060084611461A46FAF782FEE8
:10576000431C02D1236803B12B6038BD980300109D
:1057700038B5074C00230546084611462360FAF762
:10578000BFFE431C02D1236803B12B6038BD00BFAC
:105790009803001038B5064C0023054608462360E0
:1057A000FAF786FE431C02D1236803B12B6038BD93
:1057B0009803001051F8040C0028BEBF091851F8D6
:1057C000043CC0180438704781F0004102E000BF7B
:1057D00083F0004330B54FEA41044FEA430594EAB1
:1057E000050F08BF90EA020F1FBF54EA000C55EAEC
:1057F000020C7FEA645C7FEA655C00F0E2804FEABD
:105800005454D4EB5555B8BF6D420CDD2C4480EA9E
:10581000020281EA030382EA000083EA010180EACE
:10582000020281EA0303362D88BF30BD11F0004F1C
:105830004FEA01314FF4801C4CEA113102D0404252
:1058400061EB410113F0004F4FEA03334CEA13338D
:1058500002D0524263EB430394EA050F00F0A780A5
:10586000A4F10104D5F1200E0DDB02FA0EFC22FAA0
:1058700005F2801841F1000103FA0EF2801843FA94
:1058800005F359410EE0A5F120050EF1200E012A85
:1058900003FA0EFC28BF4CF0020C43FA05F3C018C3
:1058A00051EBE37101F0004507D54FF0000EDCF13C
:1058B000000C7EEB00006EEB0101B1F5801F1BD3E5
:1058C000B1F5001F0CD349085FEA30004FEA3C0CE9
:1058D00004F101044FEA445212F5800F80F09A80DF
:1058E000BCF1004F08BF5FEA500C50F1000041EBE3
:1058F000045141EA050130BD5FEA4C0C404141EBE7
:10590000010111F4801FA4F10104E9D191F0000F0D
:1059100004BF01460020B1FA81F308BF2033A3F190
:105920000B03B3F120020CDA0C3208DD02F1140C87
:10593000C2F10C0201FA0CF021FA02F10CE002F1C2
:105940001402D8BFC2F1200C01FA02F120FA0CFCBB
:10595000DCBF41EA0C019040E41AA2BF01EB045104
:10596000294330BD6FEA04041F3C1CDA0C340EDC02
:1059700004F11404C4F1200220FA04F001FA02F345
:1059800040EA030021FA04F345EA030130BDC4F103
:105990000C04C4F1200220FA02F001FA04F340EAF8
:1059A0000300294630BD21FA04F0294630BD94F0A9
:1059B000000F83F4801306BF81F480110134013D90
:1059C0004EE77FEA645C18BF7FEA655C29D094EA01
:1059D000050F08BF90EA020F05D054EA000C04BF7F
:1059E0001946104630BD91EA030F1EBF002100206A
:1059F00030BD5FEA545C05D14000494128BF41F009
:105A0000004130BD14F580043CBF01F5801130BD6C
:105A100001F0004545F0FE4141F470014FF00000F7
:105A200030BD7FEA645C1ABF194610467FEA655CA8
:105A30001CBF0B46024650EA013406BF52EA03354A
:105A400091EA030F41F4002130BD00BF90F0000F38
:105A500004BF0021704730B54FF4806404F1320474
:105A60004FF000054FF0000150E700BF90F0000F2D
:105A700004BF0021704730B54FF4806404F1320454
:105A800010F0004548BF40424FF000013EE700BF24
:105A900042004FEAE2014FEA31014FEA02701FBFB4
:105AA00012F07F4393F07F4F81F06051704792F086
:105AB000000F14BF93F07F4F704730B54FF4607400
:105AC00001F0004521F0004120E700BF50EA01024B
:105AD00008BF704730B54FF000050AE050EA0102F8
